S0110000476174655377696E672E737265638A
S113000064C300000C94AF080C94B9080C94C308A2
S11300100C94CD080C94D7080C94E1080C94EB08CC
S11300200C94F5080C94FF080C9409090C9413091A
S11300300C941D090C9427090C9431090C943B0968
S11300400C94C0090C94CA090C94D4090C94FC09AE
S11300500C94060A0C94100A0C941A0A0C94240AA0
S11300600C942E0A0C94380A0C94420A0C944C0AF0
S11300700C94560A0C94600A0C946A0A0C94AF0A05
S11300800C94B90A0C94C30A0C94CD0AAA03B803BD
S1130090B403AC03B603B603B603AE03B603B603A8
S11300A0B603B603B603B603B603B003B603B6038A
S11300B0B603B603B603B603B603B603B603B60374
S11300C0B603B603B603B603B603B2038704DA0471
S11300D0FE043C058305C105E40507064E069506A6
S11300E02A067106B906C506C5069404B704C506F2
S11300F0C506C506C506C506C506C506C506C506A4
S1130100C506C506C506C506C506C506C506C50693
S1130110C506C506C506C506C506C506C506C50683
S1130120C5065F05E206F1067A087A087A087A08B5
S11301307A087A087A087A087A087A087A087A08AB
S11301407A087A087A087A087A087A087A087A089B
S11301507A087A087A087A087A087A087A087A088B
S11301607A087A087A087A087A087A087A087A087B
S11301707A087A087A087A087A087A087A087A086B
S11301807A087A087A087A087A087A087A087A085B
S11301907A087A087A087A087A087A087A087A084B
S11301A07A087A087A087A087A087A087A087A083B
S11301B07A087A087A087A087A087A087A087A082B
S11301C07A087A087A087A087A087A087A087A081B
S11301D07A087A087A087A087A087A087A087A080B
S11301E07A087A087A087A087A087A0800070F07E2
S11301F01E072D077A087A084B075A0769077807FC
S1130200870796073C077A087A087A087A087A08F2
S11302107A087A087A087A087A087A087A087A08CA
S11302207A087A087A087A087A087A087A087A08BA
S11302307A087A087A087A087A087A087A087A08AA
S11302407A087A087A087A087A087A087A087A089A
S11302507A087A087A087A087A087A087A087A088A
S11302607A087A087A087A087A087A087A087A087A
S11302707A087A087A087A087A087A087A087A086A
S11302807A087A087A087A087A087A087A087A085A
S11302907A087A087A087A087A087A087A087A084A
S11302A07A087A087A087A087A087A087A087A083A
S11302B07A087A08A507B407C3077A08D207E107C2
S11302C0FF070E081D082C087A083B084A0868082E
S11302D05908F0074E0F7C0FCA15CA15CA15CA155E
S11302E0CA15CA15CA15CA15CA15CA15CA15CA1512
S11302F0CA15CA15CA15CA15CA15CA15CA15CA1502
S1130300CA15CA15CA15CA15CA15CA15CA15CA15F1
S1130310CA15CA15CA15CA15CA15CA15CA15CA15E1
S1130320CA15CA15CA15CA15CA15CA15CA15CA15D1
S1130330CA15CA15CA15CA15CA15CA15CA15CA15C1
S1130340CA15CA15CA15CA15CA15CA15CA15CA15B1
S1130350CA15CA15CA15CA15CA15CA15CA15CA15A1
S1130360CA15CA15CA15CA15CA15CA15CA15CA1591
S1130370CA15CA15CA15CA15CA15CA15CA15CA1581
S1130380CA15CA15CA15CA15CA15CA15CA15CA1571
S1130390CA15CA15CA15CA15CA15CA159B0FDB0F8B
S11303A0FA0F2A10CA15CA15CE10311150119A111C
S11303B00012DB115110CA15CA15CA15CA15CA157F
S11303C0CA15CA15CA15CA15CA15CA15CA15CA1531
S11303D0CA15CA15CA15CA15CA15CA15CA15CA1521
S11303E0CA15CA15CA15CA15CA15CA15CA15CA1511
S11303F0CA15CA15CA15CA15CA15CA15CA15CA1501
S1130400CA15CA15CA15CA15CA15CA15CA15CA15F0
S1130410CA15CA15CA15CA15CA15CA15CA15CA15E0
S1130420CA15CA15CA15CA15CA15CA15CA15CA15D0
S1130430CA15CA15CA15CA15CA15CA15CA15CA15C0
S1130440CA15CA15CA15CA15CA15CA15CA15CA15B0
S1130450CA15CA15CA15CA15CA15CA15CA15CA15A0
S1130460CA15CA155F127E12B812CA15E9121513FD
S1130470B9131C143B148F14CA15C81412157C1517
S113048057153C135B167A16081B081B081B081B20
S1130490081B081B081B081B081B081B081B081B40
S11304A0081B081B081B081B081B081B081B081B30
S11304B0081B081B081B081B081B081B081B081B20
S11304C0081B081B081B081B081B081B081B081B10
S11304D0081B081B081B081B081B081B081B081B00
S11304E0081B081B081B081B081B081B081B081BF0
S11304F0081B081B081B081B081B081B081B081BE0
S1130500081B081B081B081B081B081B081B081BCF
S1130510081B081B081B081B081B081B081B081BBF
S1130520081B081B081B081B081B081B081B081BAF
S1130530081B081B081B081B081B081B081B081B9F
S1130540081B081B081B081B081B081B9116A81670
S1130550DF161617081B081B47176F17A317D717A3
S11305600B1824183E18081B081B081B081B081B23
S1130570081B081B081B081B081B081B081B081B5F
S1130580081B081B081B081B081B081B081B081B4F
S1130590081B081B081B081B081B081B081B081B3F
S11305A0081B081B081B081B081B081B081B081B2F
S11305B0081B081B081B081B081B081B081B081B1F
S11305C0081B081B081B081B081B081B081B081B0F
S11305D0081B081B081B081B081B081B081B081BFF
S11305E0081B081B081B081B081B081B081B081BEF
S11305F0081B081B081B081B081B081B081B081BDF
S1130600081B081B081B081B081B081B081B081BCE
S1130610081B081B68189418C018081B07194E19E2
S11306209019B219D619FA19081B3C1A7E1AC01A65
S1130630E21A1B1B541B871BA01BEC1B051C1E1C56
S1130640371C501C691C811C981CAF1CB81CB81C9E
S1130650221B3B1BB81CB81CB81CB81CB81CB81C0B
S1130660B81CB81CB81CB81CB81CB81CB81CB81CE6
S1130670B81CB81CB81CB81CB81CB81CB81CB81CD6
S1130680B81CB81CB81CB81CB91B001F0000000023
S11306901F00001F101010101F00001F181818183A
S11306A01F00001F1C1C1C1C1F00001F1E1E1E1EE2
S11306B01F00001F1F1F1F1F1F0003070F1F0F070F
S11306C00300181C1E1F1E1C180011241FBECFEF90
S11306D0D0E1DEBFCDBF14E0A0E0B1E0E0E9FFE38C
S11306E000E00BBF02C007900D92A23FB107D9F7FB
S11306F025E0A2EFB4E001C01D92AC35B207E1F7EA
S113070087D00C94C61F83B7856083BF83B7886086
S113071083BF8DE781BF87B7826087BF089512B812
S11307208FEF83B9809361001092620080ED8ABBE1
S11307308FE38BBB089589B380958F7308958F736E
S113074090E0FC013197E032F10580F4EA5BFF4F61
S11307500C94D81C83E0089585E0089586E00895FC
S113076081E0089582E0089587E0089580E0089587
S113077084E00895982F8091F304882369F02091F0
S1130780F20492131BC08330D8F48F5F8093F30478
S11307908330C1F0811107C09093F20481E080930B
S11307A0F30480E001C080E02091F204921761F02C
S11307B09093F20491E09093F304089580E0F4CFD1
S11307C080E0F2CF892FF0CF089581B181708093BA
S11307D0020581B182708093010581B18470809398
S11307E0000581B188708093FF0481B1807180938A
S11307F0FE0481B180728093FD0481B18074809382
S1130800FC0481B180788093FB0481E090E008953A
S113081048E966E080E190E0BDD781DF74DF0E94A3
S1130820730D63D712D70E949F0C67D4789487E224
S113083091E0C1D700E0C2E6D0E06894FF24F4F868
S11308409091F904992351F076DF79DF93DF182F23
S11308500E940D1B1111012F1092F9049091F804BC
S1130860992319F0B2DF1092F8049091F7049923B8
S113087031F0802F0E94350F1092F70400E0909120
S1130880F504992331F080910F010E9448161092CB
S1130890F5049091F404992369F09091FA04992352
S11308A021F088818F25888303C088818F7E888387
S11308B01092F4049091F604992341F080910F0171
S11308C06FD280910E010CD01092F60490910F0516
S11308D0992309F4B5CF0E940B0D10920F05B0CFE8
S11308E00F931F93CF93DF93CDB7DEB764970FB603
S11308F0F894DEBF0FBECDBF90E0FC013197EC321F
S1130900F10508F042C2EA59FF4F0C94D81C60E08C
S113091080E0BBD68FE291E09BD661E080E0B5D663
S113092081E491E095D631C260E080E0AED685E501
S113093091E08ED680911201909113019F938F9331
S113094087E691E09F938F938E010F5F1F4F1F9354
S11309500F930E94DE1C61E080E097D6C80178D630
S11309600F900F900F900F900F900F900EC260E0B9
S113097080E08BD685E791E06BD680911001909151
S113098011019F938F9387E691E09F938F938E013C
S11309900F5F1F4F1F930F930E94DE1C61E080E0E6
S11309A074D6C80155D60F900F900F900F900F90EA
S11309B00F90EBC160E080E068D687E891E048D60C
S11309C080912601813051F484E1E5ECF2E0DE010E
S11309D0119601900D928A95E1F709C084E1E9ED41
S11309E0F2E0DE01119601900D928A95E1F761E043
S11309F080E04BD6CE0101962BD6C7C160E080E0E3
S1130A0044D689E991E024D6809126018130B9F455
S1130A1080912001909121019F938F938BEA91E023
S1130A209F938F93CE0101969F938F930E94DE1C18
S1130A300F900F900F900F900F900F9016C0809111
S1130A402001909121019F938F9389EB91E09F93D3
S1130A508F93CE0101969F938F930E94DE1C0F907B
S1130A600F900F900F900F900F9061E080E00DD6E3
S1130A70CE010196EDD589C160E080E006D687EC11
S1130A8091E0E6D580911601909117019F938F9381
S1130A9089ED91E09F938F938E010F5F1F4F1F93FA
S1130AA00F930E94DE1C61E080E0EFD5C801D0D531
S1130AB00F900F900F900F900F900F9066C160E011
S1130AC080E0E3D587EE91E0C3D5809125018130A4
S1130AD051F484E1E5ECF2E0DE01119601900D920F
S1130AE08A95E1F709C084E1E9EDF2E0DE011196AF
S1130AF001900D928A95E1F761E080E0C6D5CE01C0
S1130B000196A6D542C160E080E0BFD589EF91E0AF
S1130B109FD5809125018130B9F480911E01909177
S1130B201F019F938F938BEA91E09F938F93CE0144
S1130B3001969F938F930E94DE1C0F900F900F904D
S1130B400F900F900F9016C080911E0190911F017D
S1130B509F938F9389EB91E09F938F93CE0101969E
S1130B609F938F930E94DE1C0F900F900F900F9015
S1130B700F900F9061E080E088D5CE01019668D592
S1130B8004C160E080E081D58BE092E061D5809182
S1130B901C0190911D019F938F938DE192E09F938F
S1130BA08F938E010F5F1F4F1F930F930E94DE1CC4
S1130BB061E080E06AD5C8014BD50F900F900F908B
S1130BC00F900F900F90E1C060E080E05ED58BE263
S1130BD092E03ED580911A0190911B019F938F93CF
S1130BE08DE392E09F938F938E010F5F1F4F1F93AE
S1130BF00F930E94DE1C61E080E047D5C80128D530
S1130C000F900F900F900F900F900F90BEC060E068
S1130C1080E03BD58BE492E01BD580911801909144
S1130C2019019F938F938DE392E09F938F938E018D
S1130C300F5F1F4F1F930F930E94DE1C61E080E043
S1130C4024D5C80105D50F900F900F900F900F90E9
S1130C500F909BC060E080E018D58DE592E0F8D459
S1130C6080912201813051F484E1E5ECF2E0DE016F
S1130C70119601900D928A95E1F709C084E1E9ED9E
S1130C80F2E0DE01119601900D928A95E1F761E0A0
S1130C9080E0FBD4CE010196DBD477C060E080E035
S1130CA0F4D48FE692E0D4D480911401909115018C
S1130CB09F938F9381E892E09F938F938E010F5FB0
S1130CC01F4F1F930F930E94DE1C61E080E0DDD470
S1130CD0C801BED40F900F900F900F900F900F90FB
S1130CE054C060E080E0D1D48FE892E0B1D4809128
S1130CF02401813051F484E1E5ECF2E0DE01119647
S1130D0001900D928A95E1F709C084E1E9EDF2E0E2
S1130D10DE01119601900D928A95E1F761E080E081
S1130D20B4D4CE01019694D430C060E080E0ADD458
S1130D3081EA92E08DD480912301813051F484E1E1
S1130D40E5ECF2E0DE01119601900D928A95E1F74F
S1130D5009C084E1E9EDF2E0DE01119601900D9203
S1130D608A95E1F761E080E090D4CE01019670D4D9
S1130D700CC060E080E089D483EB92E069D461E048
S1130D8080E083D481E491E063D464960FB6F89450
S1130D90DEBF0FBECDBFDF91CF911F910F9108959C
S1130DA090910305981709F4A2C18093030590E07C
S1130DB0FC013197E83DF10508F09CC1EE56FF4F68
S1130DC00C94D81C62E080E060D48DEE92E040D4B4
S1130DD063E080E05AD484EF92E03AD481E090E07A
S1130DE0089562E080E051D48DEE92E031D463E066
S1130DF080E04BD489E093E02BD481E090E0089527
S1130E0062E080E042D48DEE92E022D463E080E0A0
S1130E103CD488E193E01CD481E090E0089562E042
S1130E2080E033D48DEE92E013D463E080E02DD4DF
S1130E3087E293E00DD481E090E0089562E080E0E1
S1130E4024D48DEE92E004D463E080E01ED486E3E3
S1130E5093E0FED381E090E0089562E080E015D451
S1130E608DEE92E0F5D363E080E00FD485E493E067
S1130E70EFD381E090E0089562E080E006D48DEE47
S1130E8092E0E6D363E080E000D484E593E0E0D32D
S1130E9081E090E0089562E080E0F7D38DEE92E087
S1130EA0D7D363E080E0F1D383E693E0D1D381E04C
S1130EB090E0089562E080E0E8D38DEE92E0C8D33C
S1130EC063E080E0E2D382E793E0C2D381E090E084
S1130ED0089562E080E0D9D38DEE92E0B9D363E067
S1130EE080E0D3D381E893E0B3D381E090E0089528
S1130EF062E080E0CAD38DEE92E0AAD363E080E0A2
S1130F00C4D380E993E0A4D381E090E0089562E043
S1130F1080E0BBD38DEE92E09BD363E080E0B5D359
S1130F208FE993E095D381E090E0089562E080E05A
S1130F30ACD38DEE92E08CD363E080E0A6D38EEA4E
S1130F4093E086D381E090E0089562E080E09DD351
S1130F508DEE92E07DD363E080E097D38DEB93E058
S1130F6077D381E090E0089562E080E08ED38DEE47
S1130F7092E06ED363E080E088D381ED93E068D3A0
S1130F8081E090E0089562E080E07FD38DEE92E00E
S1130F905FD363E080E079D385EE93E059D381E0B9
S1130FA090E0089562E080E070D38DEE92E050D33B
S1130FB063E080E06AD389EF93E04AD381E090E074
S1130FC0089562E080E061D38DEE92E041D363E066
S1130FD080E05BD38DE094E03BD381E090E0089522
S1130FE062E080E052D38DEE92E032D363E080E0A1
S1130FF04CD380E294E02CD381E090E0089562E049
S113100080E043D38DEE92E023D363E080E03DD3D0
S113101083E394E01DD381E090E0089562E080E0F2
S113102034D38DEE92E014D363E080E02ED387E4D2
S113103094E00ED381E090E0089562E080E025D34F
S11310408DEE92E005D363E080E01FD38BE594E05E
S1131050FFD281E090E0089562E080E016D38DEE47
S113106092E0F6D263E080E010D38FE694E0F0D211
S113107081E090E0089562E080E007D38DEE92E095
S1131080E7D263E080E001D383E894E0E1D281E039
S113109090E0089562E080E0F8D28DEE92E0D8D23C
S11310A063E080E0F2D287E994E0D2D281E090E07C
S11310B0089562E080E0E9D28DEE92E0C9D263E067
S11310C080E0E3D28BEA94E0C3D281E090E008951B
S11310D062E080E0DAD28DEE92E0BAD263E080E0A2
S11310E0D4D28FEB94E0B4D281E090E0089580E014
S11310F090E0089581E090E00895A7D22FEF83EC6B
S113110099E0215080409040E1F700C0000060E089
S113111084E0BBD283ED94E09BD261E088E0B5D259
S113112080EE94E095D263E084E0AFD284EE94E064
S11311308FD22FEF87EA91E6215080409040E1F76B
S113114000C0000082C2089580E090E0FC01EF5EE0
S1131150FA4F1082019682339105C1F708951F92C8
S11311600F920FB60F9211240F900FBE0F901F9085
S113117018951F920F920FB60F9211240F900FBE65
S11311800F901F9018951F920F920FB60F92112473
S11311900F900FBE0F901F9018951F920F920FB6CD
S11311A00F9211240F900FBE0F901F9018951F924D
S11311B00F920FB60F9211240F900FBE0F901F9035
S11311C018951F920F920FB60F9211240F900FBE15
S11311D00F901F9018951F920F920FB60F92112423
S11311E00F900FBE0F901F9018951F920F920FB67D
S11311F00F9211240F900FBE0F901F9018951F92FD
S11312000F920FB60F9211240F900FBE0F901F90E4
S113121018951F920F920FB60F9211240F900FBEC4
S11312200F901F9018951F920F920FB60F921124D2
S11312300F900FBE0F901F9018951F920F920FB62C
S11312400F9211240F900FBE0F901F9018951F92AC
S11312500F920FB60F9211240F900FBE0F901F9094
S113126018951F920F920FB60F9211240F900FBE74
S11312700F901F9018951F920F920FB60F92112482
S11312802F933F935F936F937F938F939F93AF932A
S1131290BF9320910405309105052F5F3F4F309394
S11312A005052093040560910A0170910B01C901A1
S11312B00E94C41C892B29F48091F9048F5F8093C8
S11312C0F9046091080170910901C9010E94C41CCC
S11312D0892B29F48091F8048F5F8093F80460913E
S11312E0060170910701C9010E94C41C892B29F4CD
S11312F08091F7048F5F8093F704609104017091EB
S11313000501C9010E94C41C892B29F48091F604AB
S11313108F5F8093F6046091000170910101C9010F
S11313200E94C41C892B29F48091F4048F5F80935C
S1131330F4046091020170910301C9010E94C41C6C
S1131340892B29F48091F5048F5F8093F5048091B3
S11313500C0190910D018217930720F4109205055A
S113136010920405BF91AF919F918F917F916F91DE
S11313705F913F912F910F900FBE0F901F90189582
S11313801F920F920FB60F9211240F900FBE0F9061
S11313901F9018951F920F920FB60F9211240F9061
S11313A00FBE0F901F9018951F920F920FB60F92B9
S11313B011240BB60F922F933F934F935F936F9328
S11313C07F938F939F93AF93BF93EF93FF932BD20E
S11313D0EAD1FF91EF91BF91AF919F918F917F914E
S11313E06F915F914F913F912F910F900BBE0F9092
S11313F00FBE0F901F9018951F920F920FB60F9269
S113140011240F900FBE0F901F9018951F920F92EA
S11314100FB60F9211240F900FBE0F901F901895C6
S11314201F920F920FB60F9211240F900FBE0F90C0
S11314301F9018951F920F920FB60F9211240F90C0
S11314400FBE0F901F9018951F920F920FB60F9218
S113145011240F900FBE0F901F9018951F920F929A
S11314600FB60F9211240F900FBE0F901F90189576
S11314701F920F920FB60F9211240F900FBE0F9070
S11314801F9018951F920F920FB60F9211240F9070
S11314900FBE0F901F9018951F920F920FB60F92C8
S11314A011240F900FBE0F901F9018951F920F924A
S11314B00FB60F9211240F900FBE0F901F90189526
S11314C01F920F920FB60F9211240F900FBE0F9020
S11314D01F9018951F920F920FB60F9211240BB6FE
S11314E00F922F933F934F935F936F937F938F93B9
S11314F09F93AF93BF93CF93EF93FF9388D1C82F5C
S11315008ED1CC3731F41092430581E080931005DD
S113151012C0E0914305F0E0EF5EFA4FC083809182
S113152043058F5F8093430580914305843318F00E
S11315301092430509DEFF91EF91CF91BF91AF91D6
S11315409F918F917F916F915F914F913F912F91D7
S11315500F900BBE0F900FBE0F901F9018951F9207
S11315600F920FB60F9211240F900FBE0F901F9081
S113157018951F920F920FB60F9211240F900FBE61
S11315800F901F9018951F920F920FB60F9211246F
S11315900F900FBE0F901F9018951F920F920FB6C9
S11315A00F9211240F900FBE0F901F901895982F33
S11315B0907F95BBA89AAA9AEFE8F1E03197F1F7EA
S11315C000C00000AA98A898EFE8F1E03197F1F77D
S11315D000C00000F0E18F9FC001112485BBA89AD0
S11315E0AA9A8FE891E00197F1F700C00000AA9849
S11315F0A898EFE8F1E03197F1F700C000000895F2
S1131600982F907F95BBAA9AEFE8F1E03197F1F714
S113161000C00000AA98EFE8F1E03197F1F700C0AC
S11316200000F0E18F9FC001112485BBAA9A8FE8C6
S113163091E00197F1F700C00000AA98EFE8F1E00B
S11316403197F1F700C00000089581E0D9CF0895E3
S11316500F931F93CF93DF93FC0101900020E9F7D0
S113166031971E2F181B009759F0112349F0082FAA
S1131670C02FD92F89919BDF8C2F801B8117D0F32A
S1131680DF91CF911F910F910895623031F0633053
S113169031F0613029F4805C03C08C5E01C08C5A47
S11316A08068AECF0895EF92FF920F931F93CF936C
S11316B0DF938C01660F660F660F6064E62EC0E050
S11316C0D0E0F801EC0FFD1FF4908C2F8E0D98DF05
S11316D08F2D6DDF2196C830D10599F7DF91CF9119
S11316E01F910F91FF90EF9008951F93CF93DF9375
S11316F08FE697E10197F1F700C0000015BA15BA1B
S113170084B3806F84BB84B3876084BB80E385BB70
S1131710AA9A8FE891E00197F1F700C00000AA9817
S11317208FE891E00197F1F700C0000080E385BBEA
S1131730AA9A8FE891E00197F1F700C00000AA98F7
S11317408FE891E00197F1F700C0000080E285BBCB
S1131750AA9A8FE891E00197F1F700C00000AA98D7
S11317608FE891E00197F1F700C0000088E248DFBC
S11317708CE046DFCAE8D6E060E011E0160FCE0147
S113178092DF2896183011F0612FF7CFDF91CF91B7
S11317901F910895909398008093990040939A0024
S11317A060939D000895EBE9F0E0908195FFFDCFF3
S11317B080939C000895EF92FF920F931F93CF9311
S11317C0DF93FC01DC010D900020E9F711977D0106
S11317D0E81AF90A1E141F049CF48081882381F0FE
S11317E08F010F5F1F4FC0E0D0E005C0F801819169
S11317F08F01882329F0D7DF2196EC16FD06B1F777
S1131800DF91CF911F910F91FF90EF900895EBE935
S1131810F0E080818823ECF780919C0008955D9B23
S1131820FECF8CB908955F9BFECF8CB1089581E003
S113183080932601109225011092220180932401A5
S11318401092230184E090E0909321018093200181
S113185081E090E090931F0180931E0183E090E06B
S113186090931701809316012EE130E030931B0111
S113187020931A0122E330E03093190120931801D8
S113188090931501809314018AE090E090931D01D8
S113189080931C0188EE93E09093130180931201CE
S11318A084EF91E09093110180931001089581E0F9
S11318B08093440580934505109246051092470590
S11318C08093480584E090E090934B0580934A050B
S11318D083E090E090934F0580934E0521E030E043
S11318E030934D0520934C052EE130E030935105A3
S11318F02093500522E330E03093530520935205A2
S113190090935505809354058AE090E09093570591
S11319108093560588EE93E090935B0580935A0577
S113192084EF91E0909359058093580548E150E085
S113193060E070E084E495E00C940A1F089548E1A7
S113194050E060E070E084E495E00E94FA1E80912B
S113195044058F3F19F4ABDF6ACF089580914505A4
S11319608093260180914605809325018091470547
S11319708093220180914805809324018091490538
S11319808093230180914A0590914B059093210106
S11319908093200180914E0590914F0590931701FB
S11319A08093160180914C0590914D0590931F01F1
S11319B080931E01809150059091510590931B01D5
S11319C080931A01809152059091530590931901C7
S11319D080931801809154059091550590931501B9
S11319E080931401809156059091570590931D01A1
S11319F080931C0180915A0590915B05909313018B
S1131A00809312018091580590915905909311018A
S1131A1080931001089581E080934405809126010C
S1131A20809345058091250180934605809122018C
S1131A308093470580912401809348058091230178
S1131A4080934905809120019091210190934B0549
S1131A5080934A05809116019091170190934F0548
S1131A6080934E0580911E0190911F0190934D0526
S1131A7080934C0580911A0190911B01909351051C
S1131A80809350058091180190911901909353050A
S1131A9080935205809114019091150190935505FE
S1131AA08093540580911C0190911D0190935705DA
S1131AB080935605809112019091130190935B05D8
S1131AC080935A05809110019091110190935905CA
S1131AD08093580548E150E060E070E084E495E0CC
S1131AE00C940A1F089582EA8FBD89E18EBD80E0BF
S1131AF09AE097BD86BD80E687BB1BBC1ABC19BCA7
S1131B0018BC08959BBD8ABD79BD68BD089588231E
S1131B10B9F080911201909113010A9690931301E8
S1131B2080931201809112019091130181349640A7
S1131B30E8F080E496E090931301809312010895F5
S1131B4080911201909113010A979093130180934D
S1131B50120180911201909113018436910530F4A1
S1131B6084E690E0909313018093120108958823F2
S1131B70B9F080911001909111010A96909311018E
S1131B80809310018091100190911101813496404D
S1131B90E8F080E496E09093110180931001089599
S1131BA080911001909111010A97909311018093F3
S1131BB0100180911001909111018436910530F447
S1131BC084E690E090931101809310010895882396
S1131BD0B1F080912001909121010196909321010F
S1131BE08093200180912001909121010B97E0F0D6
S1131BF08AE090E0909321018093200108958091E0
S1131C00200190912101019790932101809320015B
S1131C108091200190912101029730F482E090E0BC
S1131C20909321018093200108958823B1F080913D
S1131C301601909117010196909317018093160154
S1131C4080911601909117010B97E0F08AE090E0E3
S1131C509093170180931601089580911601909135
S1131C601701019790931701809316018091160133
S1131C7090911701892B31F481E090E09093170142
S1131C808093160108958823B9F080911A019091E8
S1131C901B01019690931B0180931A0180911A01F4
S1131CA090911B01893C910530F188EC90E0909370
S1131CB01B0180931A01089580911A0190911B01D0
S1131CC0019790931B0180931A0120911C0130917C
S1131CD01D0180911A0190911B012B5F3F4F8217C8
S1131CE0930748F480911C0190911D0105969093EF
S1131CF01B0180931A0108958823B9F0809118017B
S1131D009091190101969093190180931801809183
S1131D10180190911901893C9105E0F088EC90E05C
S1131D20909319018093180108958091180190915E
S1131D30190101979093190180931801809118015A
S1131D4090911901059730F485E090E09093190182
S1131D508093180108958823B1F080911401909123
S1131D60150101969093150180931401809114013B
S1131D70909115010B97E0F08AE090E090931501A3
S1131D808093140108958091140190911501019795
S1131D909093150180931401809114019091150181
S1131DA0892B31F481E090E0909315018093140124
S1131DB008958823B1F080911C0190911D01019632
S1131DC090931D0180931C0180911C0190911D0131
S1131DD00B97E0F08AE090E090931D0180931C0142
S1131DE0089580911C0190911D01019790931D010C
S1131DF080931C0180911C0190911D01059730F482
S1131E0085E090E090931D0180931C010895882340
S1131E10B1F080911E0190911F01019690931F01D2
S1131E2080931E0180911E0190911F010697E0F09E
S1131E3085E090E090931F0180931E0108958091A6
S1131E401E0190911F01019790931F0180931E0121
S1131E5080911E0190911F01892B31F481E090E063
S1131E6090931F0180931E010895A0910C05B091D9
S1131E700D059D012F5F3F4F30930D0520930C05F9
S1131E8040910F0150E041505109483D510508F07F
S1131E9081C646595E4FFA010C94D81C10920D0568
S1131EA010920C0510920B05813081F4809126016B
S1131EB0813031F482E080930F0181E090E0089555
S1131EC085E680930F0181E090E00895823009F067
S1131ED067C681E080930B0580912601813031F43F
S1131EE082E080930F0181E090E0089585E680937D
S1131EF00F0181E090E008958091090590910A0511
S1131F00019690930A058093090520912001309150
S1131F1021012817390708F046C610920A051092C5
S1131F20090510920D0510920C0585E680930F01AA
S1131F3081E090E008958091090590910A05019649
S1131F4090930A0580930905209116013091170199
S1131F502817390708F02AC610920A0510920905B5
S1131F6010920D0510920C0580910B05811110C083
S1131F7080912501813031F486E680930F0181E060
S1131F8090E0089587E680930F0181E090E0089542
S1131F90813009F00EC680912501813031F489EC3D
S1131FA080930F0181E090E008958AEC80930F0103
S1131FB081E090E008958091090590910A050196C9
S1131FC090930A058093090520911E0130911F0109
S1131FD02817390708F0F0C510920A051092090570
S1131FE010920D0510920C0587E680930F0181E095
S1131FF090E008958150823090F430930805209346
S1132000070510920A051092090510920D05109209
S11320100C0581E780930F0181E090E008958091A1
S1132020090590910A05019690930A058093090584
S113203020911C0130911D012817390708F0BFC5F4
S113204010920A051092090588E680930F0181E039
S113205090E008958150823070F430930805209305
S1132060070510920A051092090581E780930F0174
S113207081E090E0089580911A0190911B018217EC
S1132080930708F09FC510920D0510920C0510924D
S11320900A05109209058BE680930F0181E090E018
S11320A008958091240181115AC0809123018130C7
S11320B069F580910205811188C580910905909187
S11320C00A05019690930A0580930905209114014D
S11320D0309115012817390708F07AC510920A05BE
S11320E01092090580911A0190911B012091070516
S11320F030910805821B930B90930D0580930C057A
S11321008EE680930F0180E090E0089580910905A8
S113211090910A05019690930A05809309052091F0
S11321201401309115012817390708F054C510928D
S11321300A051092090580911A0190911B012091C2
S1132140070530910805821B930B90930D0580932E
S11321500C058EE680930F0181E090E00895809154
S1132160090590910A05019690930A058093090543
S113217020911401309115012817390708F02EC554
S11321808BE680930F0110920A05109209051092B4
S11321900D0510920C0581E090E0089590912301C3
S11321A0913091F490910205992371F010920A05EF
S11321B01092090510920D0510920C058BE6809380
S11321C00F0181E090E0089590912201913049F54A
S11321D0FD013296F0930D05E0930C052091180152
S11321E0309119012E173F0720F08150823008F0FA
S11321F0F8C410920D0510920C0510920A05109265
S1132200090580912501813031F48CE680930F011A
S113221081E090E008958DE680930F0181E090E0E5
S11322200895909122019111DFC48150823008F009
S1132230DEC410920D0510920C0510920A0510923E
S1132240090580912501813031F48CE680930F01DA
S113225081E090E008958DE680930F0181E090E0A5
S113226008958091090590910A05019690930A05B5
S11322708093090520911E0130911F012817390709
S113228008F0B8C410920A051092090510920D05C1
S113229010920C058DE680930F0181E090E0089583
S11322A0909123019130B1F490910205992391F01A
S11322B0309308052093070510920A05109209052A
S11322C010920D0510920C0580E780930F0181E0B8
S11322D090E008958150823090F430930805209363
S11322E0070510920A051092090510920D05109227
S11322F00C058FE680930F0181E090E008958091B2
S1132300090590910A05019690930A0580930905A1
S113231020911C0130911D012817390708F06DC464
S113232010920A05109209058EE680930F0180E051
S113233090E00895909123019130B1F490910205B9
S1132340992391F0309308052093070510920A050C
S11323501092090510920D0510920C0580E78093E8
S11323600F0181E090E008958150823070F4309341
S113237008052093070510920A05109209058FE6B7
S113238080930F0181E090E0089580911A0190916B
S11323901B018217930708F033C410920D051092A5
S11323A00C0510920A051092090581E080930F0133
S11323B081E090E008958091090590910A050196C5
S11323C090930A0580930905209114013091150119
S11323D02817390708F017C480911A0190911B013E
S11323E02091070530910805821B930B90930D05EE
S11323F080930C0588E680930F0181E090E00895B6
S11324002091090530910A052F5F3F4F30930A054B
S1132410209309059091240191111FC0409114014A
S11324205091150142175307C0F480911A019091FD
S11324301B012091070530910805821B930B909393
S11324400D0580930C0510920A051092090588E683
S113245080930F0181E090E00895909124019130E0
S113246009F0D4C310920A05109209058130A1F431
S113247080911A0190911B01209107053091080564
S1132480821B930B90930D0580930C0588E6809333
S11324900F0181E090E00895823009F0BAC3809181
S11324A02501813031F48BEC80930F0180E090E0C2
S11324B008958DEC80930F0180E090E00895809161
S11324C0090590910A05019690930A0580930905E0
S11324D020911E0130911F012817390708F09CC371
S11324E010920A051092090510920D0510920C0520
S11324F08AEC80930F0181E090E00895815082304E
S113250090F4309308052093070510920A05109261
S1132510090510920D0510920C0588ED80930F01AA
S113252081E090E008958091090590910A05019653
S113253090930A058093090520911C0130911D0197
S11325402817390708F06BC310920A051092090581
S113255080912501813031F48BEC80930F0181E06F
S113256090E008958DEC80930F0181E090E0089550
S11325704091090550910A054F5F5F4F50930A053A
S11325804093090560911E0170911F01641775073E
S113259070F410920A051092090510920D0510921C
S11325A00C058DEC80930F0181E090E0089581503B
S11325B0823008F037C33093080520930705109242
S11325C00A051092090588ED80930F0181E090E0DF
S11325D008958150823070F43093080520930705E4
S11325E010920A051092090588ED80930F0181E08D
S11325F090E008958091090590910A0501969093C1
S11326000A058093090520911C0130911D012817AA
S1132610390708F00AC310920A05109209058EECD6
S113262080930F0181E090E008958150823070F42E
S1132630309308052093070510920A0510920905A6
S113264088ED80930F0181E090E0089580911A0154
S113265090911B018217930708F0EAC210920D05AE
S113266010920C0510920A05109209058FEC8093C4
S11326700F0181E090E008958091240181115AC0F6
S113268080912301813069F5809102058111D3C2C3
S11326908091090590910A05019690930A0580930B
S11326A0090520911401309115012817390708F004
S11326B0C5C210920A051092090580911A019091E1
S11326C01B012091070530910805821B930B909301
S11326D00D0580930C0585ED80930F0180E090E05B
S11326E008958091090590910A05019690930A0531
S11326F08093090520911401309115012817390799
S113270008F09FC210920A051092090580911A01DF
S113271090911B012091070530910805821B930BB2
S113272090930D0580930C0585ED80930F0181E056
S113273090E008958091090590910A05019690937F
S11327400A05809309052091140130911501281779
S1132750390708F079C28FEC80930F0110920A05B3
S11327601092090510920D0510920C0581E090E07D
S1132770089590912301913091F490910205992349
S113278071F010920A051092090510920D0510922D
S11327900C058FEC80930F0181E090E008959091F7
S11327A02201913049F5FD013296F0930D05E09335
S11327B00C0520911801309119012E173F0720F0C4
S11327C08150823008F043C210920D0510920C051E
S11327D010920A051092090580912501813031F487
S11327E080ED80930F0181E090E0089581ED809366
S11327F00F0181E090E008959091220191112AC285
S11328008150823008F029C210920D0510920C05F7
S113281010920A051092090580912501813031F446
S113282080ED80930F0181E090E0089581ED809325
S11328300F0181E090E008958091090590910A05C7
S1132840019690930A058093090520911E01309109
S11328501F012817390708F003C210920A051092C5
S1132860090510920D0510920C0581ED80930F015E
S113287081E090E00895909123019130B1F490911A
S11328800205992391F030930805209307051092CF
S11328900A051092090510920D0510920C0587ED9A
S11328A080930F0181E090E008958150823090F48C
S11328B0309308052093070510920A051092090524
S11328C010920D0510920C0586ED80930F0181E0A6
S11328D090E008958091090590910A0501969093DE
S11328E00A058093090520911C0130911D012817C8
S11328F0390708F0B8C110920A05109209058091B1
S11329002501813031F482ED80930F0181E090E064
S1132910089584ED80930F0181E090E00895809103
S113292023018130B1F480910205882391F0309322
S113293008052093070510920A05109209051092C4
S11329400D0510920C0587ED80930F0181E090E056
S113295008958091090590910A05019690930A05BE
S11329608093090520911E0130911F012817390712
S113297008F07CC110920A051092090510920D0509
S113298010920C0584ED80930F0181E090E008958E
S1132990909123019130B1F490910205992391F023
S11329A0309308052093070510920A051092090533
S11329B010920D0510920C0587ED80930F0181E0B4
S11329C090E008958150823090F43093080520936C
S11329D0070510920A051092090510920D05109230
S11329E00C0586ED80930F0181E090E008958091BD
S11329F0090590910A05019690930A0580930905AB
S1132A0020911C0130911D012817390708F031C1AC
S1132A1010920A051092090585ED80930F0181E05B
S1132A2090E00895909123019130B1F490910205C2
S1132A30992391F0309308052093070510920A0515
S1132A401092090510920D0510920C0587ED8093E4
S1132A500F0181E090E008958150823090F430932A
S1132A6008052093070510920A0510920905109293
S1132A700D0510920C0586ED80930F0181E090E026
S1132A80089580911A0190911B018217930708F011
S1132A90F3C010920A051092090510920D051092C8
S1132AA00C0581E080930F0180E090E0089580910F
S1132AB0090590910A05019690930A0580930905EA
S1132AC020911401309115012817390708F0D7C057
S1132AD080911A0190911B012091070530910805FE
S1132AE0821B930B90930D0580930C058EEC8093C1
S1132AF00F0181E090E008952091090530910A05C5
S1132B002F5F3F4F30930A052093090590912401CC
S1132B1091111FC0409114015091150142175307A0
S1132B20C0F480911A0190911B0120910705309106
S1132B300805821B930B90930D0580930C0510924E
S1132B400A05109209058EEC80930F0181E090E054
S1132B50089590912401913009F094C010920A05CF
S1132B60109209058150823008F08FC080911A01BB
S1132B7090911B012091070530910805821B930B4E
S1132B8090930D0580930C058EEC80930F0181E0EA
S1132B9090E0089581E080930F0181E090E0089532
S1132BA080E090E0089580E090E0089580E090E077
S1132BB0089580E090E0089580E090E0089580E03A
S1132BC090E0089580E090E0089580E090E008951A
S1132BD080E090E0089580E090E0089581E090E046
S1132BE0089581E090E0089580E090E0089581E008
S1132BF090E0089580E090E0089580E090E00895EA
S1132C0080E090E0089580E090E0089580E090E016
S1132C10089580E090E0089580E090E0089580E0D9
S1132C2090E0089580E090E0089580E090E00895B9
S1132C3080E090E0089580E090E0089580E090E0E6
S1132C40089580E090E0089581E090E0089581E0A7
S1132C5090E0089580E090E0089581E090E0089588
S1132C6080E090E0089580E090E0089580E090E0B6
S1132C70089580E090E0089580E090E0089580E079
S1132C8090E0089580E090E0089580E090E0089559
S1132C90CF93DF9390910605981709F4B6C48093F7
S1132CA0060590E0FC013197E73DF10508F0B0C45A
S1132CB0EE5BFD4F7DC6C2E6D0E088818D7F8883C0
S1132CC088818E7F88838881877F888388818B7FB2
S1132CD0888388818F7D88831092FA0460E070E095
S1132CE080E090E00E94820D88818F77888381E064
S1132CF090E090C4E2E6F0E080818D7F8083808163
S1132D008E7F80838081877F808380818B7F808397
S1132D1080818F7D808381E08093FA0481E090E05C
S1132D2079C4E2E6F0E080818062808380818D7FD7
S1132D30808380818E7F80838081877F8083808170
S1132D408B7F808381E08093FA0481E090E062C409
S1132D50809112019091130160E070E00E94820D55
S1132D6080910105882349F0E2E6F0E080818D7FBF
S1132D70808380818E7F808311C0E2E6F0E08081D1
S1132D808E7F80832FEF81EE94E02150804090402D
S1132D90E1F700C00000808182608083E2E6F0E019
S1132DA08081877F808380818B7F80838081806224
S1132DB0808381E08093FA0481E090E02BC48091C9
S1132DC012019091130160E070E00E94820DE2E62E
S1132DD0F0E08081877F808380818B7F80838091F6
S1132DE00105882339F080818D7F808380818E7FE7
S1132DF0808311C0E2E6F0E080818D7F80832FEF35
S1132E0081EE94E0215080409040E1F700C0000042
S1132E10808181608083E2E6F0E08081806280834B
S1132E2081E08093FA0481E090E0F4C38091100182
S1132E309091110160E070E00E94820D8091010583
S1132E40882349F0E2E6F0E080818D7F80838081F1
S1132E508E7F808311C0E2E6F0E080818D7F8083E5
S1132E602FEF81EE94E0215080409040E1F700C0C4
S1132E700000808181608083E2E6F0E080818F7DC4
S1132E80808381E08093FA0481E090E0C3C360E032
S1132E9070E080E090E00E94820DE2E6F0E0808144
S1132EA08D7F808380818E7F80838081877F8083F4
S1132EB080818B7F80831092FA048091230181307A
S1132EC031F480818068808381E090E0A3C3E2E6EE
S1132ED0F0E080818F77808381E090E09BC38091D4
S1132EE012019091130160E070E00E94820D8091C4
S1132EF00005882349F0E2E6F0E080818D7F80833D
S1132F0080818E7F808311C0E2E6F0E080818D7F36
S1132F1080832FEF81EE94E0215080409040E1F7D0
S1132F2000C00000808181608083E2E6F0E080815F
S1132F30877F808380818B7F808381E08093FA0404
S1132F4081E090E067C3809112019091130160E0E9
S1132F5070E00E94820D80910005882349F0E2E62A
S1132F60F0E080818D7F808380818E7F808311C09B
S1132F70E2E6F0E080818E7F80832FEF81EE94E0A3
S1132F80215080409040E1F700C0000080818260C1
S1132F908083E2E6F0E08081877F808380818B7F7D
S1132FA0808381E08093FA0481E090E033C38091D0
S1132FB010019091110160E070E00E94820D8091F7
S1132FC00005882349F0E2E6F0E080818D7F80836C
S1132FD080818E7F808311C0E2E6F0E080818E7F65
S1132FE080832FEF81EE94E0215080409040E1F700
S1132FF000C00000808182608083E2E6F0E080818E
S1133000877F808380818B7F808381E08093FA0433
S113301081E090E0FFC260E070E080E090E00E9418
S1133020820DE2E6F0E080818D7F808380818E7F57
S113303080838081877F808380818B7F80831092CF
S1133040FA0481E090E0E6C260E070E080E090E0A5
S11330500E94820DE2E6F0E08081877F8083808198
S11330608B7F808380818D7F808380818E7F80832E
S113307081E08093FA0481E090E0CCC28091230146
S1133080813031F4E2E6F0E080818068808305C01D
S1133090E2E6F0E080818F778083809124018130A3
S11330A019F41092FA0403C081E08093FA04E2E672
S11330B0F0E080818D7F808380818E7F808380811A
S11330C0877F808380818B7F808381E090E0A2C2B0
S11330D080910105882349F0E2E6F0E080818D7F4C
S11330E0808380818E7F808311C0E2E6F0E080815E
S11330F08E7F80832FEF81EE94E0215080409040BA
S1133100E1F700C00000808182608083E2E6F0E0A5
S11331108081877F808380818B7F808381E080931F
S1133120FA0481E090E076C280910105882349F099
S1133130E2E6F0E080818D7F808380818E7F8083D2
S113314011C0E2E6F0E080818D7F80832FEF81EE75
S113315094E0215080409040E1F700C0000080815D
S113316081608083E2E6F0E08081877F80838081D4
S11331708B7F808381E08093FA0481E090E04AC2EF
S113318080910105882349F0E2E6F0E080818D7F9B
S1133190808380818E7F808311C0E2E6F0E08081AD
S11331A08D7F80832FEF81EE94E02150804090400A
S11331B0E1F700C000008081816080838091FF047A
S11331C0882349F0E2E6F0E08081877F8083808174
S11331D08B7F808311C0E2E6F0E080818B7F808367
S11331E02FEF81EE94E0215080409040E1F700C041
S11331F0000080818860808381E08093FA04E2E6A5
S1133200F0E080818F7D808381E090E003C2809133
S11332100105882349F0E2E6F0E080818D7F808318
S113322080818E7F808311C0E2E6F0E080818D7F13
S113323080832FEF81EE94E0215080409040E1F7AD
S113324000C000008081816080838091FF04882316
S113325049F0E2E6F0E08081877F808380818B7F84
S1133260808311C0E2E6F0E08081877F80832FEFC6
S113327081EE94E0215080409040E1F700C00000CE
S113328080818460808381E08093FA04E2E6F0E048
S113329080818F7D808381E090E0BCC180910105B5
S11332A0882349F0E2E6F0E080818D7F808380818D
S11332B08E7F808311C0E2E6F0E080818D7F808381
S11332C02FEF81EE94E0215080409040E1F700C060
S11332D000008081816080838091FF04882349F00D
S11332E0E2E6F0E08081877F808380818B7F80832A
S11332F011C0E2E6F0E08081877F80832FEF81EECA
S113330094E0215080409040E1F700C000008081AB
S11333108460808381E08093FA0481E090E07AC144
S113332080912301813031F4E2E6F0E0808180680D
S1133330808305C0E2E6F0E080818F778083E2E657
S1133340F0E080818D7F808380818E7F8083808187
S1133350877F808380818B7F80831092FA0481E051
S113336090E058C18091FE04882349F0E2E6F0E041
S11333708081877F808380818B7F808311C0E2E698
S1133380F0E08081877F80832FEF81EE94E02150ED
S113339080409040E1F700C0000080818460808319
S11333A081E08093FA0481E090E034C18091FE04CE
S11333B0882349F0E2E6F0E08081877F8083808182
S11333C08B7F808311C0E2E6F0E080818B7F808375
S11333D02FEF81EE94E0215080409040E1F700C04F
S11333E0000080818860808381E08093FA0481E01A
S11333F090E010C18091FE04882349F0E2E6F0E0F9
S11334008081877F808380818B7F808311C0E2E607
S1133410F0E080818B7F80832FEF81EE94E0215058
S113342080409040E1F700C0000080818860808384
S113343080910005882349F0E2E6F0E080818D7FE9
S1133440808380818E7F808311C0E2E6F0E08081FA
S11334508D7F80832FEF81EE94E021508040904057
S1133460E1F700C0000080818160808381E0809367
S1133470FA0481E090E0CEC08091FE04882349F0F4
S1133480E2E6F0E08081877F808380818B7F808388
S113349011C0E2E6F0E080818B7F80832FEF81EE24
S11334A094E0215080409040E1F700C0000080810A
S11334B08860808380910005882349F0E2E6F0E08B
S11334C080818D7F808380818E7F808311C0E2E63E
S11334D0F0E080818E7F80832FEF81EE94E0215095
S11334E080409040E1F700C00000808182608083CA
S11334F081E08093FA0481E090E08CC08091FE0426
S1133500882349F0E2E6F0E08081877F8083808130
S11335108B7F808311C0E2E6F0E080818B7F808323
S11335202FEF81EE94E0215080409040E1F700C0FD
S1133530000080818860808380910005882349F0A1
S1133540E2E6F0E080818D7F808380818E7F8083BE
S113355011C0E2E6F0E080818E7F80832FEF81EE60
S113356094E0215080409040E1F700C00000808149
S11335708260808381E08093FA0481E090E04AC015
S113358080912301813031F4E2E6F0E080818068AB
S1133590808305C0E2E6F0E080818F778083E2E6F5
S11335A0F0E080818D7F808380818E7F8083808125
S11335B0877F808380818B7F80831092FA0481E0EF
S11335C090E028C080912301813031F4E2E6F0E0FC
S11335D080818068808305C0E2E6F0E080818F7797
S11335E08083E2E6F0E080818D7F808380818E7F1E
S11335F080838081877F808380818B7F808381E04B
S11336008093FA0481E090E005C080E090E002C07D
S113361081E090E0DF91CF910895CF93C82F40913E
S11336200E0150E0FA013197EC32F10508F0A0C127
S1133630E75EFC4FBDC1873009F0A4C180E18093EF
S11336400E01A0C1853021F481E00E94870D0CC0D9
S1133650863021F480E00E94870D94C1843021F4E7
S113366081E180930E018EC1C33009F08BC18DE0DE
S113367080930E0187C1853021F481E00E94B70D4B
S11336800CC0863021F480E00E94B70D7BC18430E9
S113369021F482E080930E0175C1C33009F072C138
S11336A08DE080930E016EC1853041F481E08093FA
S11336B02601809126018130C9F45EC1863039F437
S11336C010922601809126018091260119C08091D3
S11336D02601813059F4C43009F04EC183E080934F
S11336E00E0180912601882339F04CC18091260176
S11336F0811106C0C43021F484E080930E0142C1DC
S1133700C33009F03FC18DE080930E013BC1853089
S113371021F481E00E94E70D0CC0863021F480E0A2
S11337200E94E70D2FC1843021F484E080930E01C0
S113373029C1C33009F026C18DE080930E0122C156
S1133740853021F481E00E94150E0CC0863021F4EE
S113375080E00E94150E16C1843021F48CE280931F
S11337600E0110C1C33009F00DC18DE080930E012C
S113377009C1853041F481E08093250180912501C0
S11337808130C9F4FCC0863039F41092250180914F
S113379025018091250119C080912501813059F4BA
S11337A0C43009F0ECC085E080930E0180912501BE
S11337B0882339F0E7C080912501811106C0C43007
S11337C021F486E080930E01DDC0C33009F0DAC035
S11337D086E080930E01D6C0853021F481E00E94FA
S11337E0070F0CC0863021F480E00E94070FCAC086
S11337F0843021F486E080930E01C4C0C33009F004
S1133800C1C08DE080930E01BDC0853021F481E0FC
S11338100E94D90E0CC0863021F480E00E94D90E9B
S1133820B1C0843021F487E080930E01ABC0C33073
S113383009F0A8C08DE080930E01A4C0853021F466
S113384081E00E94430E0CC0863021F480E00E9487
S1133850430E98C0843021F488E080930E0192C016
S1133860C33009F08FC08DE080930E018BC085308A
S113387021F481E00E947C0E0CC0863021F480E0AB
S11338800E947C0E7FC0843021F489E080930E0175
S113389079C0C33009F076C08DE080930E0172C008
S11338A0853021F481E00E94AB0E0CC0863021F4F7
S11338B080E00E94AB0E66C0843021F48AE08093DD
S11338C00E0160C0C33009F05DC08DE080930E012D
S11338D059C0853021F481E0809323010BC08630E8
S11338E019F4109223014EC0843021F48BE08093AC
S11338F00E0148C0C33009F045C08DE080930E012D
S113390041C0853021F481E0809322010BC08630D0
S113391019F41092220136C0843021F48CE0809393
S11339200E0130C0C33071F58DE080930E012AC0C2
S1133930853021F481E0809324010BC0863019F492
S1133940109224011FC0843021F48DE080930E0175
S113395019C0C330B9F48DE080930E0113C0809177
S11339600F058F5F80930F0581E080930E010AC0DD
S113397081E080930E0106C080912601C1CE809122
S1133980250123CFCF910895AA1BBB1B51E107C08A
S1133990AA1FBB1FA617B70710F0A61BB70B881FDB
S11339A0991F5A95A9F780959095BC01CD0108956A
S11339B0EE0FFF1F0590F491E02D09940F931F93D0
S11339C0CF93DF93CDB7DEB72E970FB6F894DEBF53
S11339D00FBECDBF0D891E8986E08C831A830983AF
S11339E08FEF9FE79E838D83AE01475E5F4F6F89A4
S11339F0788DCE01019610D0EF81F885E00FF11F8C
S1133A0010822E960FB6F894DEBF0FBECDBFDF91A5
S1133A10CF911F910F9108952F923F924F925F92F1
S1133A206F927F928F929F92AF92BF92CF92DF92CA
S1133A30EF92FF920F931F93CF93DF93CDB7DEB72F
S1133A402C970FB6F894DEBF0FBECDBF7C016B017F
S1133A508A01FC0117821682838181FFB0C1CE01E5
S1133A6001964C01F7019381F60193FD859193FF33
S1133A7081916F01882309F49EC1853239F493FD45
S1133A80859193FF81916F01853221F4B70190E014
S1133A90EDD1E8CF512C312C20E02032A0F48B3230
S1133AA069F030F4803259F0833269F420612CC01B
S1133AB08D3239F0803339F4216026C022602460CD
S1133AC023C0286021C027FD27C030ED380F3A30CD
S1133AD078F426FF06C0FAE05F9E300D1124532EC1
S1133AE013C08AE0389E300D1124332E20620CC09E
S1133AF08E3221F426FD5FC1206406C08C3611F499
S1133B00206802C0883641F4F60193FD859193FF45
S1133B1081916F018111C1CF982F9F7D955493306E
S1133B2028F40C5F1F4FFFE3F9830DC0833631F097
S1133B30833771F0833509F057C021C0F8018081C3
S1133B4089830E5F1F4F44244394512C540114C0A5
S1133B503801F2E06F0E711CF801A080B18026FFDD
S1133B6003C0652D70E002C06FEF7FEFC5012C87A5
S1133B7072D12C0183012C852F77222E16C0380197
S1133B80F2E06F0E711CF801A080B18026FF03C023
S1133B90652D70E002C06FEF7FEFC5012C8750D117
S1133BA02C012C852068222E830123FC19C0832D2F
S1133BB090E048165906A0F4B70180E290E056D18F
S1133BC03A94F5CFF50127FC859127FE81915F0199
S1133BD0B70190E04BD131103A94F1E04F1A5108FB
S1133BE04114510479F7DEC0843611F0893631F579
S1133BF0F80127FF07C060817181828193810C5F86
S1133C001F4F08C060817181882777FD8095982FA8
S1133C100E5F1F4F2F76B22E97FF09C090958095A7
S1133C20709561957F4F8F4F9F4F2068B22E2AE089
S1133C3030E0A4014DD1A82EA81843C0853729F43B
S1133C402F7EB22E2AE030E025C0F22FF97FBF2E5E
S1133C508F36C1F018F4883579F0ADC0803719F08B
S1133C60883721F0A8C02F2F2061B22EB4FE0DC0DA
S1133C708B2D8460B82E09C024FF0AC09F2F966044
S1133C80B92E06C028E030E005C020E130E002C0D3
S1133C9020E132E0F801B7FE07C0608171818281C2
S1133CA093810C5F1F4F06C06081718180E090E0BA
S1133CB00E5F1F4FA4010CD1A82EA818FB2DFF776F
S1133CC0BF2EB6FE0BC02B2D2E7FA51450F4B4FED0
S1133CD00AC0B2FC08C02B2D2E7E05C07A2C2B2DD9
S1133CE003C07A2C01C0752C24FF0DC0FE01EA0D1F
S1133CF0F11D8081803311F4297E09C022FF06C0A2
S1133D007394739404C0822F867809F0739423FD0E
S1133D1012C020FF06C05A2C731418F4530C571801
S1133D20732C731460F4B70180E290E02C879ED06A
S1133D3073942C85F6CF731410F4371801C0312C0A
S1133D4024FF11C0B70180E390E02C878FD02C852D
S1133D5022FF16C021FF03C088E590E002C088E777
S1133D6090E0B7010CC0822F867851F021FD02C08B
S1133D7080E201C08BE227FD8DE2B70190E076D0AE
S1133D80A51430F4B70180E390E070D05A94F8CFD2
S1133D90AA94F401EA0DF11D8081B70190E066D088
S1133DA0A110F6CF332009F45DCEB70180E290E094
S1133DB05DD03A94F7CFF7018681978102C08FEFE7
S1133DC09FEF2C960FB6F894DEBF0FBECDBFDF91E8
S1133DD0CF911F910F91FF90EF90DF90CF90BF9004
S1133DE0AF909F908F907F906F905F904F903F9097
S1133DF02F900895DC01CB01FC01E199FECF06C0B0
S1133E00FFBBEEBBE09A31960DB20D92415050408B
S1133E10B8F70895DC01CB0102C02D9105D04150C3
S1133E205040D8F70895262FE199FECF9FBB8EBB53
S1133E302DBB0FB6F894E29AE19A0FBE019608954D
S1133E40FC010590615070400110D8F78095909561
S1133E508E0F9F1F0895FC01615070400190011066
S1133E60D8F7809590958E0F9F1F08950F931F93F9
S1133E70CF93DF93182F092FEB018B8181FD03C0B2
S1133E808FEF9FEF20C082FF10C04E815F812C8195
S1133E903D81421753077CF4E881F9819F012F5F2C
S1133EA03F4F39832883108306C0E885F985812F25
S1133EB00995892B29F72E813F812F5F3F4F3F833F
S1133EC02E83812F902FDF91CF911F910F91089511
S1133ED0FA01AA27283051F1203181F1E8946F9337
S1133EE06E7F6E5F7F4F8F4F9F4FAF4FB1E03ED0DD
S1133EF0B4E03CD0670F781F891F9A1FA11D680F7B
S1133F00791F8A1F911DA11D6A0F711D811D911DAD
S1133F10A11D20D009F468943F912AE0269F112422
S1133F203019305D3193DEF6CF010895462F477086
S1133F30405D4193B3E00FD0C9F7F6CF462F4F70E1
S1133F40405D4A3318F0495D31FD4052419302D03F
S1133F50A9F7EACFB4E0A6959795879577956795E5
S1133F60BA95C9F700976105710508959B01AC01E5
S1133F700A2E06945795479537952795BA95C9F70C
S1133F80620F731F841F951FA01D0895F894FFCF1F
S1133F90DC056400F401E803F40164008813010102
S1133FA0F401E803020002000A00190005000200FF
S1133FB00200010101010148454C4C4F0A0D004D1E
S1133FC04F44453A2052554E2020202020202020C6
S1133FD000202020202020202020202020202020FD
S1133FE020202020004D4F44453A20504F57455241
S1133FF020494E49202000504F5745522020202070
S113400020253464004D4F44453A20504F574552C3
S113401020434F552020004D4F44453A20464C4103
S11340205348204D4F444520004D4F44453A2046C7
S11340304C4153482054494D45200041435449566E
S1134040452020202025346400494E4143544956DC
S1134050452020253464004D4F44453A20554E4CAC
S11340604F434B2054494D4500554E4C4F434B2034
S1134070202020253464004D4F44453A2052414DC0
S1134080204D4F4445202020004D4F44453A2052B6
S1134090414D2054494D45202020004D4F44453A80
S11340A020474154452044454C4159200044454C47
S11340B041592020202020253464004D4F44453AA6
S11340C020574F524B2054494D4520200054494D10
S11340D045202020202020253464004D4F44453ABB
S11340E020574149542054494D452020004D4F4408
S11340F0453A204155544F204D4F44452020004D12
S11341004F44453A20484F4C44204D4F44452020CD
S113411000484F4C442054494D4520253464004DFB
S11341204F44453A2053544550204D4F4445202098
S1134130004D4F44453A2043454C4C204D4F444597
S11341402020004D4F44453A20534156494E4720C4
S1134150202020200041435449564520202020207F
S1134160202020202020202000494E41435449563D
S113417045202020202020202020202000535441AE
S11341805455530049444C4520434C4F5345442017
S113419020202020202020200050524520464C4141
S11341A05348494E47202000554E4C4F434B202046
S11341B0202020202020004D31204F50454E2052F9
S11341C0414D202020004D31204F50454E20494E76
S11341D049202020004D31204F50454E20434F555B
S11341E0522020004D31204F50454E20484F4C4422
S11341F02020004D312057414954494E472020206A
S113420020004D3120434C4F53452052414D202036
S1134210004D3120434C4F534520494E4920200046
S11342204D3120434C4F534520434F555220004DB0
S11342303120434C4F534520484F4C4420004D31CE
S113424020434C4F53452043454C4C20004D3120D6
S11342504F50454E2052414D204D3220484F4C4442
S1134260004D31204F50454E20494E49204D3220BB
S1134270484F4C44004D31204F50454E20434F553C
S1134280204D322052414D20004D31204F50454E9B
S113429020434F55204D3220494E4920004D3120B6
S11342A04F50454E20434F55204D3220434F55002B
S11342B04D314D32204F50454E20484F4C44202024
S11342C02020004D314D322057414954494E47205A
S11342D0202020202020004D3120434C4F532048E3
S11342E04F4C44204D322052414D004D3120434C1F
S11342F04F5320484F4C44204D3220494E49004DE5
S11343003120434C4F532052414D204D3220434FD6
S11343105520004D3120434C4F5320494E49204DE8
S11343203220434F5520004D3120434C4F532043FE
S11343304F55204D3220434F5520004D314D3220F2
S1134340434C4F53452043454C4C20202020004DE6
S1134350314D3220434C4F534520484F4C4420208C
S11343602020004761746520436F6E74726F6C0087
S113437048534F0056657273696F6E3A20312E3080
S1054380000037
S9030000FC
